:020000041000EA
:1000000000B5324B212058609868022188439860DF
:10001000D860186158612E4B002199600221596106
:100020000121F02299502B49196001219960352056
:1000300000F044F80222904214D00621196600F024
:1000400034F8196E01211966002018661A6600F04E
:100050002CF8196E196E196E052000F02FF8012189
:100060000842F9D1002199601B49196000215960AB
:100070001A491B48016001219960EB211966A021F2
:10008000196600F012F800219960164914480160C1
:100090000121996001BC002800D000471248134993
:1000A000086003C880F30888084703B5996A0420EC
:1000B0000142FBD001200142F8D103BD02B5186610
:1000C0001866FFF7F2FF186E186E02BD00000240BE
:1000D000000000180000070000035F00212200005C
:1000E000F4000018222000A00001001008ED00E03C
:1000F00000000000000000000000000074B24E7A12
:1001000000200420F7010010CB010010CD010010E9
:10011000C9010010C9010010C9010010C901001077
:10012000C9010010C9010010C9010010CF01001061
:10013000C9010010C9010010D1010010D301001045
:10014000C1010010C1010010C1010010C101001067
:10015000C1010010C1010010C1010010C101001057
:10016000C1010010C1010010C1010010C101001047
:10017000C1010010C1010010C1010010C101001037
:10018000C1010010C1010010C1010010C101001027
:10019000C1010010C1010010C1010010C101001017
:1001A000C1010010C1010010C1010010C101001007
:1001B000C1010010C1010010C1010010C1010010F7
:1001C000EFF30580103800BE00BE00BE00BE00BECA
:1001D00000BE00BEF2EB8871544500107C45001053
:1001E0003802001090A31AE71E481F49086006C88D
:1001F00081F3088810471D480068002801D019487D
:10020000F3E70DA40ECC002902D000F012F8F9E7B4
:100210001749184A002000E001C19142FCD116495B
:100220008847164988471649884700BEFDE701C937
:1002300001C29A42FBD370477C450010C0000020E9
:10024000100F0020CC5300100000042000000420F8
:10025000CC53001000100420001004200000000007
:10026000704700000000000008ED00E0000000D032
:10027000100F0020A422002041200010890300104C
:1002800039200010F8B5C0460448054B10B583422C
:1002900003D0044B002B00D0984710BD100F002056
:1002A000100F00200000000006480749091A8B10B3
:1002B000C90FC91810B5491003D0044B002B00D04A
:1002C000984710BD100F0020100F00200000000004
:1002D00010B5074C2378002B09D1FFF7D5FF054B4C
:1002E000002B02D0044800E000BF0123237010BDA2
:1002F000901200200000000000420010054B10B5D5
:10030000002B03D00449054800E000BFFFF7CCFFF5
:1003100010BDC046000000009412002000420010F2
:1003200070B5114C82B0A369DB060FD46B46102563
:10033000DE1DA3691D42FCD123680020337003F049
:10034000F7F8002804D1A3691D42F2D002B070BDB5
:1003500001223100002003F0A3F9002003F062F92C
:10036000A3691D42E5D0F1E700400340002806D113
:10037000034B1B78002B02D10122024B1A707047ED
:100380009F220020A1220020F8B5DE4645465746B0
:100390004E46E0B501F064FF0021002003F062FB4F
:1003A000E1213A4C4902200001F070F902210020BD
:1003B00000F0FEF90221012000F0FAF9142034497E
:1003C00000F054FB0121142000F03EFB5023A363F6
:1003D000626B183B13402F4A0421136000202E4B00
:1003E000012200F0FFF92D4B2D4D98462D4B2E4E3E
:1003F0009B462E4F01200021404202F0BFFA002010
:1004000003F096F80028F5D02B78002B2ED1002091
:1004100003F0A8F80028EDD0424601231370802293
:1004200039000020520003F0ADF8002814D05B46DC
:1004300000229B5E390099460D2320229A463818E7
:100440000B789C4699450BD0A3691A42FCD16346B0
:10045000013123608142F3D1002342461370C9E782
:10046000A3691A42FCD153462360EDE74C223100C8
:10047000002003F015F9002003F0D4F80023002039
:100480002B7003F06FF80028B4D0C5E7004003409C
:1004900021030010345003406D0300109F22002000
:1004A000A122002094210020004200109C21002065
:1004B0004A7808788B7810B5C978120210431B046B
:1004C000034309060248194301F06EF910BDC04606
:1004D0000040034000487047C04200100048704789
:1004E0007442001030B5002806D1C1241148124BC7
:1004F000A4004380048030BD042819D80F4B80002D
:10050000C5580C480023811C04E001330A800231E5
:10051000132B0AD0EA5CDCB2002AF6D1C0230134E6
:10052000E4B264009B001C43E4E7CA24A400E1E7B2
:100530000020E0E7381D002009040000D44200102C
:10054000D0231B061B68F0B59A00454690464146ED
:10055000934ADE465258574693465A1E93413022DC
:100560004E465B421A4013008E4AE0B5944683B073
:10057000634401938C4B08269A463500083DEA08EF
:100580001300019908339B005C58002C27D05B4670
:10059000002B2ED001230F279946390021402742F6
:1005A00017D0524640462B001258203BEA40DB173A
:1005B00013404A4613420CD1072208002A409200F9
:1005C00090400200EB0879483C339B001A50280009
:1005D000D84724090135002C01D0B542DDD30836B7
:1005E000282ECAD103B0F0BCBB46B246A946A046ED
:1005F000F0BD0F2318002040234209D041466A4B2A
:1006000059583300E940283BDB0F0B4200D197E0FB
:100610002309F11F002BE2D00F22100018401A42CC
:1006200011D04246604B9A583300CA40273BDB0F3B
:10063000134208D10722CB081140890088405B4A49
:100640003C339B009850230AB11F002BC7D00F22C8
:10065000100018401A4211D04246534B9A583300AA
:10066000CA40263BDB0F134208D10722CB081140BA
:10067000890088404D4A3C339B009850230B711FE2
:10068000002BACD00F22100018401A4245D1230C89
:10069000311F002BA3D00F22100018401A4258D14E
:1006A000230DF11E002B9AD00F22100018401A4281
:1006B00062D1230EB11E002B91D00F2210001840E2
:1006C0001A4211D04246384B9A583300CA40223B56
:1006D000DB0F134208D10722CB0811408900884064
:1006E000324A3C339B009850240F711E002C00D1DD
:1006F00075E7534642469A583300CA40213BDB0F08
:10070000134200D06BE70722CB08114089008C40D0
:10071000264A3C339B009C5061E74246224B9A5844
:100720003300CA40253BDB0F1342B0D10722CB0870
:100730001140890088401D4A3C339B009850A6E731
:1007400007231D40AD00A840184B3C329200D0500A
:100750005EE74246144B9A583300CA40243BDB0FF5
:1007600013429DD10722CB081140890088400F4ACF
:100770003C339B00985093E742460B4B9A5833000A
:10078000CA40233BDB0F134293D10722CB08114011
:1007900089008840054A3C339B00985089E7C04651
:1007A000F81C00200041014084210020004001404D
:1007B00010B54024084A83009A181268C0005440BB
:1007C000C0222240054CA44663441A60044B9C4658
:1007D0006044416010BDC04604C0014004D00140E7
:1007E00000400140F8B545469846D0231B06DE463A
:1007F0001C689B462B4B57469A46A3004E4699468B
:10080000E0B5534616004A469B5807000D00002BE2
:1008100034D04346002B3FD053464A464146995078
:10082000D0231B061C6807201F4A631E9C41944668
:10083000FA081100302338408000854064421B488C
:1008400023403C316344890092000D509B18002ED8
:100850000ED0802292019446634401210D201D6038
:1008600000F0F2F8F0BCBB46B246A946A046F8BD7F
:10087000C0229201944663441D60F3E74346002B77
:10088000D1D0534641460D2099500022084900F02E
:1008900017F95B461C68C6E70D20054900F004FA0D
:1008A000BAE7C046F81C002000410140004001406A
:1008B000410500108023DB051868000F7047C04613
:1008C0000FB400B5084883B001F01CFD049B002B59
:1008D00007D005A91800019101F094FB034801F02D
:1008E00011FD012001F0A6FBE8420010F8420010C3
:1008F00070B5EFF3108C72B60D4D2B68002BFCD049
:10090000BFF35F8F0724CB08C618C05C01230C40DF
:10091000A3401C000440034207D103433370BFF3DC
:100920005F8F2C608CF3108870BD1000FFF7C8FF3C
:100930002C0100D0F8B54746CE46884680B5EFF387
:10094000108C72B6214D2C68002CFCD0BFF35F8F49
:100950009A422CD8D4080727055D061901241740B0
:10096000BC402C421FD007210127894609E0D4084A
:10097000055D06194C4639001440A1400C0029427F
:1009800011D001329342F2D201204042BFF35F8F77
:1009900000220E4B1A608CF3108800280FDBC0BCBD
:1009A000B946B046F8BD2C4310003470EEE7BFF3F3
:1009B0005F8F00232B608CF3108801204042434658
:1009C000002BECD00898FFF77BFFC0462C0100D02D
:1009D000044A1078431CDBB2172B00D91023137084
:1009E0007047C046490E002000B5054B83B001009A
:1009F000009318221F230348FFF79CFF03B000BD9C
:100A0000FC420010081D00200021044B044ABFF3E3
:100A10005F8F02C39342FAD17047C046000100D0F5
:100A2000800100D0054B064A1360064A13605360EC
:100A30009360D360136153619361704780808080BD
:100A400000E400E004E400E01F2318401E3B834064
:100A5000002905D0C021044A490053501360704753
:100A6000802201498B50FAE700E100E070B50D00EB
:100A7000EFF3108672B60F4A1368002BFCD0BFF359
:100A80005F8F0D4B10309B6884001B590B4A9342BB
:100A900003D09D4201D001F075F8074B9B681D51B2
:100AA000BFF35F8FBFF35F8F0022024B1A6086F3A4
:100AB000108870BD240100D000ED00E0C1010010DD
:100AC000F0B557464E46DE464546E0B585B00600D1
:100AD00002911700EFF3108B72B6674A1368002B70
:100AE000FCD0BFF35F8F0025644B5D579A46002D05
:100AF00000DAA4E06B00624C03935B199B009846FC
:100B0000A146C1444B4652469B79103613705D4B4B
:100B1000B2009B68019299580B1B2F2B34D95A4B6A
:100B2000994200D0A4E0039B584A9C46584B654428
:100B3000AD006353434602336519E418554B012158
:100B4000043B1B1B1B055B0D13436B80524BEF716A
:100B5000AB80FF23AB71029BAB604B460B4319008C
:100B6000484B019A9B689950BFF35F8FBFF35F8F2B
:100B70000022414B1A608BF3108805B0F0BCBB46D5
:100B8000B246A946A046F0BD01200A008243D379AF
:100B9000BB422FD845464E46130040491B1B5B41C4
:100BA0005943090D3A4B63533A4B02356519043BDF
:100BB0005B1B1B05354D5B0D2B4373800426B44630
:100BC000E0444444131F1B1B4C46A17102991B05B2
:100BD000A16049465B0D2B43A380314BE771014374
:100BE0001360BDE75800C01880002018C679BE42C7
:100BF0002BD902000623D356002BF3DA101D8246B0
:100C00002848804604267642B446E14450464E4683
:100C1000361A3005400D824656461C4895710643EB
:100C20009680039A944665441D4AAD00641922607B
:100C30004246A371029BA280E771A36090E700F097
:100C4000A1FF002553465D5754E7101D824690884A
:100C50004005001584464046D444664604302018BA
:100C6000301AE0260005400D360230438046C9E7C1
:100C700000F088FF57E7C046240100D0A0220020E2
:100C80004C0E002000ED00E0C101001000E0FFFF6D
:100C900000A1FFFF7C0E002001BDFFFFAAAA0000FB
:100CA0000148804701BD0000F0B5DE4657464E467C
:100CB0004546E0B50C0083B0EFF3108972B65F4A89
:100CC0001368002BFCD0BFF35F8F5D4B9A68030065
:100CD00010339F00D5595B4A904695423DD0A542BE
:100CE0004ED0594EAA1B2F2A37D8584A934612681D
:100CF0009446012261469246824011401F221040D4
:100D00005246824092460191802251465846815077
:100D1000BFF35F8FEFF305829346002A32D10123A0
:100D20002A009A439068844208D17CE04B005B180B
:100D30009B00F318986884422ED01A000621515661
:100D40000029F3DA84424DD0019B002B1FD0C02232
:100D500051463E4B520099501960394B9B68DD510A
:100D6000BFF35F8FBFF35F8F0022344B1A6089F3AC
:100D7000108803B0F0BCBB46B246A946A046F0BD01
:100D80001500EAE79342CAD000F0FCFEC7E78023D3
:100D900051462E4AD150E0E706215956002922DB60
:100DA0004A005018800034188046A0689860E079A6
:100DB000D871062020569871002825DBA488F01AE7
:100DC0006405241544440019E0240005400D240264
:100DD0002043988052181E4B9200B6181A7819704A
:100DE000B271B1E71300594600290FD1FF3191715B
:100DF0001849918016490A789A71174A9B1B5B41E2
:100E00005A43120D0A709FE71448E2E7144A154945
:100E1000D21A083A5002400D0143998012495208F3
:100E20000A43DA8090E70621515613000029B7DA09
:100E30005A46002AEAD14546DCE7C046240100D0E4
:100E400000ED00E0C10100104C0E002000E100E0C8
:100E5000A022002001BDFFFFAAAA000001BD0000E2
:100E6000860E002000F0FFFF00F8FFFF70B50124A0
:100E70000443EFF30581EFF3108C72B6214A136837
:100E8000002BFCD0BFF35F8F1F4B05001F4AED1AEC
:100E90006D416A43120D1E4D8900AE6852B27658FC
:100EA000A6421CD00621595691421CD012215956F7
:100EB000914222D01E215956914220D02A215956C2
:100EC0000324914210D0134B19781A708171BFF32B
:100ED0005F8F00220B4B1A608CF3108870BDAB68DB
:100EE0000D4C5C50EFE700246100091989005B1884
:100EF000FF21997109499980E5E70124F4E702246B
:100F0000F2E7C046240100D04C0E0020AAAA00003F
:100F100000ED00E0A0220020C101001001BDFFFF94
:100F2000024B9C46614489000160704740000034D8
:100F3000F8B5134D134E2C00FF27B5421ED223687F
:100F4000002B0FD0FFF744FD01002800FFF7E8FF5A
:100F5000A780BFF35F8F0834B4420FD22368250007
:100F6000002BEFD1FFF734FD01002800FFF7D8FF79
:100F70002771BFF35F8F0834B442EFD3F8BDC0468A
:100F8000080F0020100F002010B50400FFF720FD0F
:100F900001002000FFF7C4FFFF232371BFF35F8F21
:100FA00010BDC04610B504000120FFF71DFD044B25
:100FB0009C46604480002060BFF35F8F10BDC04638
:100FC000400000340A4B1968EFF3108072B60A68CB
:100FD000002AFCD0BFF35F8F1B68BFF35F8F002236
:100FE0001A6080F3108840BF002000217047C0467F
:100FF00090210020F0B5DE4657464E464546E0B506
:1010000085B0EFF30582032313409A001100039289
:10101000B64A5258904601229A409146B44B1A6003
:101020004B46B4484363434608229B5E9A46002BD6
:101030003DDA43469B881BB2002B00DBA1E0434610
:101040009B79002B00D0F3E0434608241C5F002C62
:1010500023DB42465269630094461B19DB0063445C
:101060009C68DD68631C00D10FE1A24803998446A7
:101070006144826A0B69A61A9B1A9E4215D34A469E
:10108000036A1A4211D09B4800F0C4FA241A8D4119
:10109000002D02DCC4D1002CC2D040BF05B0F0BC92
:1010A000BB46B246A946A046F0BD0C61EBE74246FE
:1010B00052695B0093465344DB009B445B469E6849
:1010C000DF6800F0A7FA801BB9410029B1DB002FCF
:1010D00000DAE5E05B46884A1B69934200D1D8E01C
:1010E00041465A460820085E5288000410435A467A
:1010F0005169984704000D0023002B4300D1CFE035
:10110000002D00DBE8E0361BAF4134003D005B46BC
:101110009C60DD600021595E002900DA89E74346C2
:101120005B6922009C462B0048004018C0006044C8
:101130008668C768921BBB41002B00DA79E74346FB
:10114000664602000094019519810CE07B00DB19D2
:10115000DB00F318009801999C68DD68001BA94129
:10116000002904DB1A000023D75E002FEEDA5B466D
:101170001F805346138043469B881BB2002B00DA26
:101180005DE743461A69EFF3108172B61368002BCE
:10119000FCD0BFF35F8F43469B8842461BB29A4602
:1011A00001235B4293801369BFF35F8F00221A60B3
:1011B00081F310885346002B00DA40E743465B6911
:1011C0009C46082343449B4653465F00434657448E
:1011D000FF0008229A5E67445E46BC68FD68002AEC
:1011E00019DB3B000094019567469C4604E01E0015
:1011F0000023F25E002A0BDB0098019953009B1834
:10120000DB00FB189C68DD68001BA9410029EEDAB1
:101210006346BC461F005346338000217B5E3A8004
:101220009A46002BD0DA43469B79002B00D10BE77E
:10123000002342469371434646460821595E0836CC
:101240004B1C00D129E747468C46556902E0060051
:101250004B1C17D04B005B18DB00E8180A00E95E56
:1012600043881BB2002BF2DA01235B42DC17836058
:10127000C4606245ECD031803B89944603803A815A
:101280004B1CE7D1B8466446E1E66B1C00D0ECE6A7
:10129000F9E65B465C69200023699847002821D164
:1012A0005B4642461B8813811269EFF3108372B6C6
:1012B00011680029FCD0BFF35F8F4246594652881F
:1012C0000A804246514651801269BFF35F8F002168
:1012D000116083F31088ACE6064800F09BF92418EF
:1012E0004D4114E76568246806E7C0467421002074
:1012F0003C70054000400540F50F001070B52E4CC5
:101300002569002D04D00A212C48FFF709FE70BD85
:101310002B4E0321300000F073F9E660FFF758FB15
:10132000284B03229C46D02322701B061B680121F8
:101330006370254B6044A3600F238000206102206E
:10134000638063694942A18019800231198647315F
:101350001D83585218315A5275325C3999521832DD
:101360000131995218320131995218320131995292
:10137000083518329D520231183299521832013113
:10138000995218320131995218320131995218325A
:10139000013199521832013199520C4B0C49DC60E1
:1013A00001303562FFF762FB01210320FFF74CFBA0
:1013B000084B1D60A7E7C046940E00209021002036
:1013C0000040054040000034FFFF10007421002061
:1013D000F50F00103860054070B5C646010000B535
:1013E0000469EFF3108C72B620680028FCD0BFF3BC
:1013F0005F8F02200D5E48696C0080466419E4002E
:101400004444002D01DB208848800869BFF35F8FCA
:10141000002606608CF31088002D30DBE3606388C3
:101420000598013320615B0406985B0CA260606143
:101430001A1C002B21D090B22B04628018430A6939
:10144000EFF3108672B61368002BFCD0BFF35F8FEA
:101450008B8823808D800B69BFF35F8F00221A6019
:1014600086F310880B7801329A40CB6805498C4688
:1014700063441A6040BCB04670BD0122DBE7012026
:101480004042F7E73C20000010B543890A1493421C
:1014900033DD53009B184269DB00944604696344C2
:1014A000EFF3108C72B62268002AFCD0BFF35F8F76
:1014B0005A88090494B2090C8A4208D00369BFF320
:1014C0005F8F00221A608CF31088002010BD8022EC
:1014D000120214435C80012302698371BFF35F8FA2
:1014E000002111608CF31088054902788C469340E6
:1014F000C268012062441360E8E70020E6E7C046C6
:101500003C200000F0B5CE46474680B504000D00F3
:1015100083B0EFF30587002F0DD0364A0020536AC1
:101520008B4203D3926A0130A24250D303B0C0BCB5
:10153000B946B046F0BD304B9846DB689946434605
:1015400048461E7800F066F80B0049460200043653
:10155000B600715820008E1A2900801A99418F42D6
:1015600011DC0ED020BF234A0020536AAB42DDD3EA
:10157000926A0130A242D9D2E81A421E9041C0B20A
:10158000D4E78642EED900F04DF822002B00121A63
:101590008B41002B20DB00230193184B220000938A
:1015A00040462B00FFF718FF011E15DD114B2E00E2
:1015B0005A6A95421CD89B6AA34217D34046FFF74C
:1015C00063FF0C4A0020536A9E42AFD8D0E7581AF6
:1015D000421E9041C0B2A9E7064A0020536AAB42BE
:1015E000A4D3926A0120A242A0D2C5E79542E5D1D8
:1015F00020BFE3E700400540940E0020C50F001017
:1016000010B5024A0248FFF773F910BD18430010E5
:101610000C1D00200300416A0A00986A596A8A4238
:10162000FAD17047034B596A0A00986A596A914285
:10163000FAD170470040054070B504000D00124A11
:10164000536A1900966A536A8B42FAD13000190026
:1016500024184D41AB4211D80ED02B000A494A6ADA
:101660009A42FCD307D1084A02E0516A994202D15A
:10167000916AA142F9D370BDA642EED9012301249B
:101680006442E5175B42E9E700400540F8B5040015
:1016900006200D0000F0D0F9002842D0364B374923
:1016A000E21853425A418023DB039C469205344B97
:1016B00062441A60334B1A6010000B689843FBD1E8
:1016C0002D4B8021E3185A4253412F4A5B004900B9
:1016D0009952062000F0B0F92900C00000F088FB04
:1016E0000130C3091ED1402701226262A362266B2A
:1016F000F30722D4E36A254B0620E51800232B606C
:10170000266300F099F93900800000F071FB702227
:10171000E36A5A407E2313402B601D4B236303234F
:10172000A364F8BD1B4A93421ED900231A4A1B4FDB
:101730006262A362266BF307DCD5194B144AE318E7
:101740001A60656AA26A0620AD01AD1800F074F94E
:10175000144900F04DFBAD020100280000F048FBE9
:101760000021FFF769FFC5E74006800E9F011A00C0
:101770003F180300B9E7C0460080FCBF08C0004026
:1017800000E0004000F00040942100202C100000F8
:1017900001030000FEFF0000FFFF0000C0FF3F004C
:1017A000303000004E0E0000F8B5040006200D0099
:1017B00000F042F92900C00000F01AFB0130C30913
:1017C00021D01F4A934233D900231E4A1E4F626222
:1017D000A362256BEB071DD51C4B1D4AE3181A604D
:1017E000666AA26A0620B601B61800F025F9194902
:1017F00000F0FEFAB6020100300000F0F9FA002114
:10180000FFF71AFF06E0402701226262A362256B00
:10181000EB07E1D40022E36A0F4B0620E3181A60BD
:10182000256300F009F93900800000F0E1FAF8BD05
:101830004006800E9F011A003F180300E5E7C046EE
:10184000FEFF0000FFFF0000C0FF3F00303000003F
:10185000010300004E0E00002C100000F8B5DE461B
:101860004E4657464546E0B58B4605000A99180096
:10187000160000F0BDFA0A9B6C001F02324B64197F
:101880009C46A4006444636881469F4200D9676017
:101890002B1FDBB29846012B30D9C02380229B013D
:1018A000E31812011A60294BAD0059599A460029D4
:1018B0001BD1226876017240E02680231640424602
:1018C0005B01E3181E60012A30D9802380229B012E
:1018D000E31812011A6053464A4667605A51F0BC39
:1018E000BB46B246A946A046F8BD586900F080FA4A
:1018F000431C5800C0180338FDD2DAE75B46012BC1
:10190000CBD1C02303229B01E3181A60023AA368DB
:101910001A42FCD0E0232268760156401E40802304
:101920000A4A5B019246E3181E60AD005A462168E0
:10193000514003220A401A6001225B469A40A36884
:101940001A42FCD0C1E7C04600800040101D0020B4
:10195000F0B546464F46D646C0B51F00344B44004E
:101960009C462418A4006444636888461600FF2B34
:1019700002D880235B006360031FDBB29A46012B11
:1019800030D9C02380229B01E31812011A60294B31
:1019900085005959994600291BD122687601724069
:1019A000E0268023164052465B01E3181E60012AA0
:1019B00030D9802380229B01E31812011A60802312
:1019C0005B0063604B465F51E0BCBA46B146A84637
:1019D000F0BD586900F00CFA431C5800C0180338D9
:1019E000FDD2DAE74346012BCBD1C02303229B0172
:1019F000E3181A60023AA3681A42FCD0E023226876
:101A0000760156401E4080230A4A5B019146E31846
:101A10001E60850042462168514003220A401A6038
:101A2000012342469340A2681342FCD0C1E7C0465E
:101A300000800040101D0020014B8000C0587047FE
:101A4000101D0020F8B5040020481D0017000E00EE
:101A500000F0CEF90100380000F0CAF9069B290415
:101A60001B0319432368002B1EDB194B194DE21889
:101A700053425A4180235B019C461203164B624439
:101A80001A60164B1A6017002B689F43FBD1144B4A
:101A90002660E2182123A06013602368002BFCDA83
:101AA0000823E1601360F8BD3F2322681340B3426E
:101AB000DBD1A3681B051B0D8342D6D1EE22E36860
:101AC000D20213408B42D0D1EDE7C046001BB700D5
:101AD0000040FDBF08C0004000E0004000F00040B2
:101AE000043000008023024A9B000B43D3627047FE
:101AF00000800540142310B50100188804331B88AA
:101B0000984710BD162310B50100188802331B88B2
:101B1000984710BDF8B54746CE4680B50F1E19D080
:101B200014239946043304000025012698464B46A9
:101B30001888434621681B88984701C4431E984172
:101B4000013540420640AF42F1D13000C0BCB94639
:101B5000B046F8BD0126F8E7AA23064A1B01136028
:101B60008D235B00D3600449044B19605368002B3C
:101B7000FCDA70470040024000B0FA00006002400A
:101B80007047C04610B50148FEF79AFE3C4300106E
:101B900070B5074D074EB54209D20024013E761BB1
:101BA000B60808CD984723000134B342F9D170BD7F
:101BB000C0410010FC410010054B064A06491A605E
:101BC000064A074B1A6010000B689843FBD1704718
:101BD00000E00040BFCDFBFE08C00040FE7F3C009F
:101BE00000F00040044BDB6C002B03D18022034B40
:101BF000D2021A607047C046000011504C201150AC
:101C0000044A054B1A60054A1368DB018033FBD197
:101C10007047C046FFFFFF0100F0004008C00040D1
:101C20004022034B9A675A671A67DA667047C046C4
:101C300000F0014010B5FEF7E7FE10BDF8B52D49E4
:101C40002D4C2E4D641AA6103200302E00D93022B1
:101C50002800920000F0C8F9BC2C41D80123711C67
:101C600008009C46264A30293DD92F272C196407A5
:101C7000E30FBF1B052F19D9302917D8002B36D0F9
:101C8000B1006A506146CC1AF3189B006108EB184A
:101C9000C900C9181A605A6008338B42FAD101236F
:101CA0002100994346188C421AD0711CB300EA50A7
:101CB000302915D089006A50B31C2E2E10D09B00FD
:101CC000EA50F31C2D2E0BD09B00EA50331D2C2E16
:101CD00006D09B00EA50731D2B2E01D09B00EA50CA
:101CE000084B9D60F8BD2F339B1B9C46BDE7300021
:101CF000C8E7C04600010010C0010010000000202D
:101D0000C101001000ED00E0002310B5294C82B0A5
:101D1000A367FFF721FF0122274B1A60636C012B99
:101D2000FCD10322254B1A60224A936B012BFCD174
:101D3000013300930121224A22480433FFF782FE37
:101D4000052301210093204A2048FFF77BFE002253
:101D5000022104201E4BFFF7FBFD0022012105207C
:101D60001C4BFFF7F5FD0022002107201A4BFFF75F
:101D7000EFFD002200210820174BFFF7E9FD80232B
:101D8000DB000093002200210920134BFFF766FDC2
:101D90000022104B00210620FFF7DAFD0420FFF798
:101DA0004BFE0E4900F024F801000020FFF79AFED8
:101DB00002B010BD008000403CB0004030B0004098
:101DC000002F685900800240008C864700C0024006
:101DD000001BB70040597307006CDC0240420F0043
:101DE00001480421014B1847B00E0020151B0010BC
:101DF000114A936F9B0813D210665166002905D0D3
:101E0000FFE7FFE7FFE7516F106F704704B5002849
:101E100001D00020C04302F09BF9002104BDC04660
:101E2000F0B5146E556E576F166FFFF7E5FF146629
:101E3000556657671667F0BD000000D0132370B5D4
:101E40001D78012D19D014DD1E48FFF75BFE06003A
:101E50001D48FFF757FE1D4C80223100200000F086
:101E6000C3F8022D06D01A48FFF744FE194B18603C
:101E700070BD164C184BA364F5E7174B134C236049
:101E80006360A360E36023616361A361E361236234
:101E90006362A362E36223636363A363E363236414
:101EA0006364A364E36423656365A365E3652366F4
:101EB0006366A366E36623676367A367E367A36458
:101EC000D1E7C04653440000534600009010002064
:101ED0004C3300008C210020DD1E001007B5604649
:101EE00001880A0A0230DF2AFAD1C9B2820804D373
:101EF000028840880004104300E00068014A505006
:101F0000039007BD9010002051434343C9188C46ED
:101F1000110C83B24B4310B4040C614392B280B2F3
:101F2000504362431C041B0C001910BC594113049C
:101F3000120CC0185141614470470000132310B5C2
:101F400012481C78FFF7DEFD0100012C0AD003DDEA
:101F500080220F4800F048F80E48FFF7CBFD0E4BEB
:101F6000186010BD0A4C5422200000F03DF80B4BC5
:101F70006365A365E36523666366A366E36623671B
:101F80006367A367E3672362E361E5E75346000005
:101F9000901100204C3300008C210020A11F001064
:101FA00007B5604601880A0A0230DF2AFAD1C9B2B1
:101FB000820804D3028840880004104300E00068CF
:101FC000014A5050039007BD9011002001480421A0
:101FD000014B1847C00E0020151B0010014B1B6859
:101FE00018470000C00E0020014B5B681847000036
:101FF000C00E002010B5002800D110BD00F036F949
:10200000FBE7C04610B5094A0300146884B0002CF1
:1020100008D0012200910648524203A9A04701209E
:1020200004B010BD00F06EF90020F9E76C2100202B
:10203000F51F001000BEFDE710B5FFF7FBFFC0461F
:1020400070B5FFF7A5FD074D074EB54209D2002434
:10205000013E761BB60808CD984723000134B342F1
:10206000F9D170BDFC41001000420010030010B512
:10207000080011001B68984710BDC046F0B54646E1
:102080004F46D646C0B5437D80460E001700002B54
:1020900046D0002A3FDD4B1E9946244B01250024E3
:1020A00000209A460DE04B461B5D0D3B5A425341C2
:1020B000325DDBB20A2A0BD02B00013401359F427E
:1020C0001ADD002CEFD14346325D1B7D0A2AF3D185
:1020D000002BF1D1A04204DA4346211A1B683018C4
:1020E0009847434650461B68022198470134280010
:1020F0002B0001359F42E4DC874204DD4346391A58
:102100001B6830189847F619013E33780D3B5A4248
:10211000534142461375E0BCBA46B146A846F0BDED
:102120000368110030009847F5E7C046E44300100B
:10213000F0B5DE4657464E464546E0B585B0170039
:102140001C0006000D00FFF76DFA0023314A12183B
:102150004B41002B59DB304908008A4602F008F851
:1021600001906B1C03D1300001F0A8FF0500002C8A
:1021700026D12A4B98462A4B1C68002C15D0002FDC
:1021800021D1284F02E02469002C0ED02368002BB7
:10219000F9D03B68002B01D0A342F4D120002A00E3
:1021A0003100C0472469002CF0D1019B002B28D1BD
:1021B000280005B0F0BCBB46B246A946A046F0BD1B
:1021C000194B9846D7E7174B994602ABDF1D0A23F8
:1021D0009B4602E02469002CE7D02368002BF9D04D
:1021E0004B461B68002B01D0A342F3D12A003100DB
:1021F0002000C0475B460122390020003B70C047E9
:10220000E8E7504601F08CFFD2E70122074B52422B
:10221000A1E7C04640420F00080F00206D200010CB
:10222000601D0020681D00207D200010FFFFFF7F43
:102230000A4A1368002B05D10CE01A001B69103202
:10224000002B07D09842F8D1002902D1036913600E
:10225000016170470029FCD01060FAE7601D002082
:1022600010B500F037F9012010BDC046F0B5CE46DC
:10227000474680B583B06B460600DD1D2870FFF72A
:10228000D1F900231A4A12184B41002B2BDB1949B4
:102290000800884601F06CFF174B81461C68002C33
:1022A00014D0164F02E02469002C0FD02368002BB5
:1022B000F9D03B68002B01D0A342F4D120000122C9
:1022C0002900FFF7DBFE2469002CEFD14B46002BE1
:1022D00005D1300003B0C0BCB946B046F0BD4046A1
:1022E00001F01EFFF5E70122054B5242CFE7C04641
:1022F00040420F00080F0020601D0020681D0020D4
:10230000FFFFFF7F70B5040001F0D8FE012301003C
:10231000050001222000FFF70BFF084B1C68002C72
:1023200006D06368002B05D098472469002CF8D1AB
:10233000280070BD2469002CF3D1F9E7601D00204E
:10234000F0B50D1E15DD0E4B0D271A680D4B451906
:10235000D31859424B410C495B005E5E2021047842
:10236000A64207D093691942FCD101301460A842FB
:10237000F5D1F0BD93691942FCD11760F2E7C04670
:10238000982100200080FCBF9421002030B504007B
:102390000D1E24DD002010211A4B013C1A689369A0
:1023A000194217D1013093691942FCD113682354A3
:1023B0008542F4D1144B1B68002B0AD05023936341
:1023C000516B183B0B4011498C4662441360002846
:1023D00014D030BD0C4B1B68002BEFD1F7E70A4B34
:1023E0001B68002B0AD05022064B1B689A63596B5E
:1023F000183A0A4005498C4663441A60032040425B
:10240000E7E7C04698210020001D0020341000009E
:10241000064B10B51B68002B06D00021044A126839
:102420009163044A1068984710BDC046001D002003
:1024300098210020041D00200822034B19688B6995
:102440001A42FCD17047C0469821002070B51B4E3F
:102450001B4B32680500D3185842434114331C000B
:10246000002D04D0174B1A68002A11D070BD154EEC
:102470003368002BFAD0002120009563FEF7E4FAC0
:1024800020001149FEF710FC104B35601D60EDE790
:102490001D600E4B200019600B49FEF7E7FA012181
:1024A0002000FEF7D1FA502233689A63596B183A2C
:1024B0000A4007498C4663441A60D7E798210020F8
:1024C0000080FCBF001D002011240010041D00200E
:1024D000341000000D4B10B51B780D4B0D4C1B78C4
:1024E0000D4B02211B780D4B00202360FEF760F995
:1024F00002210120FEF75CF9E12120684902FFF783
:10250000C5F801210648FFF793FE10BD7045001085
:1025100074450010982100207845001000400340C9
:10252000D00E0020F8B500F045F90C23194DFF221C
:10253000AB6705201849FEF7C3FA184C402200216A
:102540002000FFF74BFD4027002301262121144ADC
:1025500066702783A260136063545F3161844539DC
:102560006354104A10496360E2602787A1620B60E0
:102570006362E26201F01CFE80239B052E64EB6423
:1025800090230A4A0120EA508022094B5202DA6461
:10259000F8BDC04600001150690300206C1D0020EA
:1025A00084001050000110508000105010D0010025
:1025B0000020115010B501210520FEF745FA10BD8D
:1025C00010B500220021024800F014F910BDC046E9
:1025D0008C1D0020044B1970002904D08021902309
:1025E000024A8902D15070479D22002000201150DC
:1025F0000B785B0602D14B78052B00D070478A78A8
:10260000014B1A60FAE7C04600001150F0B5C6460B
:10261000C87800B58007830F1800012B61D08F7830
:102620000C794B797F211B02394023434E00FC0972
:10263000334D32195201AA1897700127674057701D
:1026400000275B055B0DD7701383D076B846CA00B0
:10265000012C32D02B4FBC468F016244BC46AC44A7
:102660006746BA6047461760002932D0264AC9003B
:1026700090466246414451603F223F3393430228D3
:1026800038D0224937190A687F01D3180B602049D6
:10269000EF19FA608B422FD8341964012D19EB7EA3
:1026A0001C499B064A401343802201201206134313
:1026B0006A68136080BCB846F0BD174FBC468F01F6
:1026C0006244BC46AC446746BA624746176000297C
:1026D00009D1002364012D196B60104B0120EB60C0
:1026E000E8E70020E6E70B4AC9009046624641440D
:1026F0005162C1E75B00C4E7FFF744FAFA68CBE731
:102700006C1D002084001050040010507021002027
:10271000FF0F1050000010508000105000011050AA
:1027200010B501F045FD10BD10B57F200C00204014
:102730004000E409110000191A00034B4001C018C1
:1027400000F058F8012010BD6C1D00207F221300FE
:1027500010B50B400A420BD0C9098022580040181E
:102760000649400140181201002101F019FD10BD79
:1027700002220348C909521A8266EEE76C1D002046
:10278000002011507F22100010B508400A4200D1ED
:1027900010BD0023C9094000401804494001081831
:1027A00000220349C37001F0FBFCF1E76C1D00201F
:1027B000FFF7FFFF80220A4B520410B51A60094B45
:1027C00009491A6010000B689843FBD18022002150
:1027D00052010648FFF702FC0922054B5A6710BD5B
:1027E00000E0004000F0004008C000400000105031
:1027F0000000115070B5837E04000D001600002B00
:1028000017D10023E38201332000A682A37625613D
:1028100001F08EFC002804D080219023084A890210
:10282000D150200001F08CFC002805D00123237733
:1028300070BD01F0ADFCE4E7200001F0A1FCF7E77A
:1028400000201150002070477047C0467047C046B6
:102850000020704700207047002070477047C04636
:102860007047C0467047C0467047C046024B587814
:10287000431E9841C0B27047DC1B0020024B187801
:102880004007C00F7047C046DC1B0020F0B546462D
:102890004F46D646C0B52E4B814698461B780E0053
:1028A0000124FF2B40D100293DD00021542229488A
:1028B000FFF794FB0022284C284B20001A70FEF7EB
:1028C00063FB274B1C60274C20001430FEF76AFB8B
:1028D000200001F0AFFB244B244D1C60244B002B47
:1028E00004D0280000E000BF224B1860224A0024D8
:1028F00092462B781F4F0EE03A686301944663447A
:10290000002B10D05B68002B0DD0984701342B783A
:10291000E4B2A3420ED39C42EED3E31A5B015344CC
:102920005B68002BF1D100242000E0BCBA46B14620
:10293000A846F0BD43464A46310048461A70FFF7A4
:10294000F1FD041EEFD04846FFF734FEECE7C04629
:10295000040F0020DC1B0020D41B00209E2200203E
:10296000301C0020E80E0020341C00209C22002097
:1029700000000000AC12002034450010F0B5DE4627
:1029800057464E464546E0B5BC4B8BB01B78FF2BF7
:1029900000D127E1BA4BBB4D9A4607AC2E6872694D
:1029A000EFF3108172B61368002BFCD0BFF35F8F7A
:1029B000B1613000210001F07FF97269B369BFF3A2
:1029C0005F8F0021116083F31088002800D109E196
:1029D0006378082BE2D852469B00D3589F46636821
:1029E000002BDBD0A0689847D8E77F232179A64E3B
:1029F0000B405800CA093618B61832000127303289
:102A00001079B843107110790337B8431071002B57
:102A100000D1F0E09D4A337D1278934200D3DFE08D
:102A20009B4A5B011268D318002B00D1DAE09E6943
:102A300062792078A368B047B0E7964A1378002BF4
:102A400000D1CFE01378013BDBB213701378002B79
:102A5000A4D101228C4B01211B788B4813438A4A55
:102A6000894E13703423D25C8A43C254C25C042062
:102A70008243F2540133F25C8A43F254F25C8243A3
:102A8000F254237800209B4600F08CFC60222379CE
:102A90001A40602A0DD0402A00D1B4E0DB06DB0EDC
:102AA000012B00D1FEE0022B00D1C6E0002B00D1AB
:102AB000B5E020780021FFF749FE80212078FFF75C
:102AC00045FE6BE7704E3378DB0700D466E7FFF70F
:102AD000CBFE63E76C4BDB78DB0700D45EE7606816
:102AE000FFF7B4FE5AE7684E3378DB0700D455E7AA
:102AF00030780007C00FFFF7B5FE4FE7664A634E18
:102B000023789346624A98469146320033780027EC
:102B1000464690460FE04A4612687B01944663445D
:102B2000002B66D0DB6830009847434601371B789E
:102B3000FFB2BB423ED39F42EDD3FB1A5B015B4425
:102B4000F0E7554A514E23789346514A98469146AC
:102B5000320033780027464690460FE04A46126816
:102B60007B0194466344002B1FD0DB6830009847FC
:102B7000434601371B78FFB2BB4205D3BB42EDD8B9
:102B8000FB1A5B015B44F0E73F4E5422002130000A
:102B9000FFF724FA1022FF21301DFFF71FFA300043
:102BA0002022FF211430FFF719FA00F0F1FBFFF7A4
:102BB00057FEF3E6344E542200213000FFF70EFAA0
:102BC0001022FF21301DFFF709FA30002022FF21DB
:102BD0001430FFF703FA00F0DBFB2379B370DDE676
:102BE00093420ED00BB0F0BCBB46B246A946A046FD
:102BF000F0BD254EEFE762792078A36800F0E6FB90
:102C0000CCE6254B13E7254800F0CCFB01215846C4
:102C100008AAFFF717FE002800D0BFE649E7202AE0
:102C200000D13FE1002A00D043E76379092B00D9A6
:102C30003FE71B4A9B00D3589F467023217A0B42E3
:102C400000D036E77F26CB0998460E400E4B760023
:102C50009B1943441F7D0D4B1B789F4253D300D0DB
:102C60003CE10D4F002A00D13CE1786900F09AFB6D
:102C7000012158467B6908AA9847CCE7040F002039
:102C80008C440010341C0020DC1B00209C220020FF
:102C9000AC1200209E220020344500104528001070
:102CA000B0440010237A0F2B00D902E7CF4A944694
:102CB000CF4A63441B79127893422FD300D0F8E6B1
:102CC000CC4E706900F06EFB01215846736908AA6A
:102CD0009847002800D061E66022160023791E4044
:102CE0001A4200D0E5E663790A3B012B00D9E0E601
:102CF00000F058FB63790A2B00D148E1584608A937
:102D000000F0D0FA4AE6BC4B7F011B68DF19002AAD
:102D100000D1E7E0002F00D1CBE6A6E7B64A5B0181
:102D20001668F618002E00D1C3E6CAE7AF4BA779A4
:102D30005B789F42E2D0AD4B5B78002B00D061E125
:102D4000AA4B5F70002F00D14DE1781EC0B2FDF795
:102D5000C5FB002800D142E143780493022B00D048
:102D60003DE10121C279931152110B400A40120139
:102D70005B0113439D4A2F3112788A4313439B4AC8
:102D8000137009239946C37882781B021343C31832
:102D90000293994B814498464F46029BBB4200D810
:102DA000FEE001227B7801920B2B04D1FB7801938A
:102DB0003B78FF187B78042B00D010E1029BB946CA
:102DC000DB1B9BB203938A4B1E7800231F0019E084
:102DD000424612687B01D618002E00D1FFE049461A
:102DE0005846039A336998470590082803D9039AEF
:102DF000824200D3D7E07E4B01371E78FFB2BE423D
:102E000000D2ECE0BE42E3D87A4BBE1B9C46760172
:102E10006644E4E7754B06AA5B78023213705846A5
:102E2000012308A900F056FAB8E5E088030AC0B209
:102E30000F2B00D93DE671499A008A58974608A899
:102E400000F0B6FA5846A179FFF7BAFB0222674BA9
:102E50001B781343654A1370A0E5E388012B00D06B
:102E600027E60822614B1B789343604A137045E7BD
:102E700002205E4B197806AB9A1C8B068908DB0F83
:102E800001400B4313805846022308A900F022FAA0
:102E900084E5E388012B00D00BE60822534B1B7816
:102EA0001343E2E7237A0F2B00D902E64F4A9446F8
:102EB00063441E794E4B1B789E4227D24E4A7301C3
:102EC0001668F618002E00D1F3E5706900F06AFA72
:102ED00001215846736908AA98479CE60027002AF2
:102EE00000D0E6E50222637999469343012B12D084
:102EF0004B46002B00D0DCE53C4B06AA9B19434413
:102F000030331B7902329B07DB0FBBE79E4200D0B8
:102F1000CFE5384ED9E7E388002B12D14B46012B81
:102F200024D0374B1878FFF711FC02212F4B9B1947
:102F3000434430331A790A4301211A711A790A433A
:102F40001A71002F00D129E5786900F02BFA7B690E
:102F500008AA012158469847002000F023FA35239B
:102F6000224AD35CDB0700D518E5C7E6244B187866
:102F7000FFF708FC02211D4B9B19434430331A799B
:102F80008A4349461A711A798A431A71D9E706ABFE
:102F90009A1C5846012308A9167000F09BF9FDE41D
:102FA000FFF75CFCAAE63B004F469946019B012BCC
:102FB00000D185E0019B002B73D000234E46B978E9
:102FC00005E016710133019ADBB2934268D20748DB
:102FD000CA188446D2B262441079FF28F1D0002387
:102FE000024A537065E5FFF73BFC87E6DC1B0020D7
:102FF0009C22002034450010AC120020D844001060
:10300000040F002000215846FFF7E4FA5846FFF766
:1030100087FB0022424E9046424A434B9146320083
:103020009B7801933378464690460FE04A461268F3
:10303000730194466344002B20D0DB6858469847C0
:10304000434601361B78F6B2B34207D3B342EDD8FC
:10305000364AF31A94465B016344EEE7542200219A
:103060003148FEF7BBFF304B1022FF21181DFEF741
:10307000B5FF2022FF212E48FEF7B0FF2A4B019A10
:103080009A705DE6FFF7E4FB021E00D111E5D378EC
:1030900091781B020B43584608A900F01BF9BAE5CA
:1030A000B146059E4B4639003200214800F07EFDB6
:1030B000B4461B4B67441B784B4500D36DE68EE747
:1030C0001C4B32699A4200D077E7049B019374E766
:1030D000FFF7C0FB021E00D1EBE45846137808A9A5
:1030E00000F0F8F897E52189FDF7FCF9021EF4D10C
:1030F000DFE4022B0FD0FFF7AFFB021EC7D1D8E4ED
:10310000FDF7E8F9021E00D1D3E41223584608A9BE
:1031100000F0E0F87FE5FDF7E1F9021EB7D1C8E461
:103120009C220020AC120020DC1B00203445001043
:10313000F01B0020D9370010F8B557464E46DE4642
:1031400045460C00E0B516001F00002A3CD0702355
:1031500098461E4B00259B461D4B9A461AE05B463F
:103160001B78200099465346997800F0E3FC00282C
:103170001CD021004846FFF749FA002816D0A37852
:10318000DA09012A19D00A9A013513702378E41854
:10319000B54219DA6378052B08D1E3789B079B0FBA
:1031A000BB4203D14246A3781A42D8D00020F0BCDB
:1031B000BB46B246A946A046F8BD0B9A013513702E
:1031C0002378E418B542E5DB0120F0E7040F002086
:1031D000DC1B0020702270B58B780C001A4201D0E5
:1031E000002070BD064B20001D78064B997800F03A
:1031F000A1FC0028F4D021002800FFF707FAF0E72F
:10320000040F0020DC1B0020074B080019687F23F7
:1032100010B50340C0095B0034301818034B181870
:1032200000F044FC10BDC046301C0020DC1B002018
:10323000074B080019687F2310B50340C0095B00E5
:1032400034301818034B181800F058FC10BDC04655
:10325000301C0020DC1B00207F2070B508400F4C84
:103260004000CD0924186419303425790020ED0779
:1032700000D570BD012625790948354300782571B0
:10328000FFF752FA0028F4D10122237993432371E6
:103290002379033293432371EBE7C046DC1B002004
:1032A000040F002070B50A4E0500300008220C0003
:1032B000FEF79AFE00237F21F3602278B3609142EB
:1032C0005B412800D90100220023FFF7C5FF70BD34
:1032D000BC1B0020F8B5CE46474691462A4E80B525
:1032E0000822070030000D009846FEF77DFE4B4691
:1032F000B3600023F381EC79A97924020C43231CE9
:10330000444500D943469AB29046B381002C13D06D
:10331000002A1FD04B46002B34D0131C402A1FD844
:103320009BB2984633787F2B20D80021174A43461A
:103330003800FFF791FF09E07F222B7838009A428E
:10334000644100230022E101FFF786FFC0BCB946BB
:10335000B046F8BD33787F2B11D980210022E6E7F3
:1033600040239BB2984633787F2BDED9074C4246E8
:1033700049462000FEF738FE80212200D7E70021D1
:103380000022D4E70020E1E7BC1B00207C1B0020CA
:1033900010B5142200210248FEF720FE10BDC046E1
:1033A000BC1B0020014B18617047C046BC1B0020AD
:1033B00010B5054C010008222000FEF715FE002381
:1033C000A360E36010BDC046BC1B0020F8B5394CBB
:1033D0001D0023780600DA09C9098A4210D00020AE
:1033E000002D00D0F8BD21003000FFF701F923695E
:1033F000002B42D022000321300098470120F1E742
:103400007F2B06D8A068002839D02A002A49FEF769
:10341000EBFDA368E28959195219E38892B2E2815F
:10342000A160934214D03F2D12D9A589A81A071C78
:1034300080B240282FD82378BFB27F2B2DD800210F
:10344000AA4235D01C4A3B003000FFF705FFC9E710
:103450002369002B05D02200022130009847002864
:103460000FD07F220021237830009A424941002367
:103470000022C901FFF7F0FEB4E70120B2E7002007
:10348000B0E700213000FFF761F930008021FFF73D
:103490005DF90120A6E74027CDE7AA4207D0064CF8
:1034A0003A002000FEF7A0FD80212200CBE780211A
:1034B0000022C8E7BC1B00207C1B002070B5050063
:1034C000FFF7D4F9002800D170BDFFF7D7F9002825
:1034D000FAD16B015B19DB00134A5B19DB00D618CC
:1034E000F1780029F0D010339C18200000F0CEFBBA
:1034F0003F28E9D90020F178FFF786FE0028E3D0C5
:10350000200000F0C3FB3F2808D9EA01074D402303
:10351000F17852190020FFF79FFED5E7F1780020DF
:10352000FFF786FED0E7C04634130020B01200201B
:1035300010B50400FFF79AF9002801D1002010BD52
:10354000FFF79CF90028F9D160010019C000044B75
:103550000019C0001818037901201840EFE7C04691
:1035600034130020020043011B1810B5D800801846
:10357000034BC0001030C01800F06AFB10BDC046FD
:1035800034130020234BF0B5C646984645012C184D
:10359000E4002418E400204B1034060000B5444435
:1035A0009A4200D91D4A200092B200F0D5FB0700D4
:1035B000FFF75CF9002803D1380080BCB846F0BDA5
:1035C000FFF75CF90028F7D1AD19ED00AD19ED005A
:1035D0004544EB78002BEFD0200000F057FB3F284C
:1035E000EAD90020E978FFF70FFE0028E4D0200098
:1035F00000F04CFB3F2808D9F201094E4023E9783E
:1036000092190020FFF728FED6E7E9780020FFF79F
:103610000FFED1E734130020FEFF0000FFFF000083
:10362000B0120020F8B50400FFF720F9002801D1FE
:103630000020F8BDFFF722F90028F9D165012D1906
:10364000ED002D19ED002E00134F2436F619300031
:1036500000F0FEFA0028EBD07D190020A978FFF7D2
:10366000D3FD0028E4D00D48E401403424182100A3
:103670003000402200F070FBA978061E08D003003D
:1036800022000020FFF7E8FD0028D1D03000D0E76D
:103690000020FFF7CDFDCBE734130020B01200204F
:1036A00070B544012418E40024180C4BE4002434C1
:1036B000E4180B4B05009A4200D90A4A200092B246
:1036C00000F004FC0600200000F0C2FA3F2801D8F8
:1036D000300070BD2800FFF7A5FFF9E73413002084
:1036E000FEFF0000FFFF0000F0B500251A4C83B07C
:1036F00000212000194AFEF771FC194B80261D702D
:10370000FF236371E1235B02A360210008232000F3
:10371000F600A373320038310095073B103000F0FB
:103720005FFA8723DB00E1182000012332000093B9
:10373000243000F055FA0B4BE7183800FDF724FC55
:1037400084231B01E6183000FDF71EFCE5612762AB
:103750002663656303B0F0BD341300204808000001
:103760003013002038080000074B1A6A196B002A32
:1037700002D00022DA611A62002902D000221A6304
:103780005A6301207047C0463413002070B50F4CB7
:10379000052200212000FEF721FC0D4D2B78DA07D1
:1037A00007D50C4C9B070CD50121200000F062FCD2
:1037B00070BD2000103000F03DFC2B78054C9B07BD
:1037C000F2D4200000F036FCEEE7C04634130020AF
:1037D0003013002058130020F0B54B79060083B059
:1037E000022B02D18B79022B03D00025280003B0D5
:1037F000F0BD214FBB78002BF7D18B7809253B70AA
:103800000C780C196378242B0BD1082A02D80FE00E
:10381000AA420DD32378E418ED186378ADB2242BB7
:10382000F6D0052B08D0042B02D163790A2B11D0D6
:103830000020FFF743FED9E721003000FFF7CAFC64
:103840000028D2D0A3787B702378ED18E418637831
:10385000ADB2E8E7094B27780193013300930222C8
:1038600002233000E119FFF767FC0028BDD00E35B8
:10387000ED19ADB2DCE7C04634130020361300204A
:10388000F8B5602314001278050013400020202BA7
:1038900007D1304A6379277916781B023B439E4251
:1038A00000D0F8BD6378222B28D007D8202B17D062
:1038B000212BF6D101293ED00120F2E7232BF0D1B4
:1038C000012940D00329F7D1234B002BF4D0E17814
:1038D000A37809020020194300E000BF0120E0E7BF
:1038E000012928D00329E7D11C4B002BE4D0083252
:1038F00000201100FCF7DCFD0120D2E7012922D0D5
:103900000329D9D10125A178E4782E0024020C43A3
:1039100001211471264024321000714000F0AAFBEE
:103920000F4B002BC8D06208002031002A4000E075
:1039300000BF0120B5E7072321002800094AFFF74F
:10394000C9FC0120ADE721002800FFF7ABFC0120F6
:10395000A7E7C0463413002000000000B1040010A7
:10396000000000003C130020F0B54F464646D64606
:10397000C0B5354D8046EA780C001F008A425BD105
:103980009AB210239A46314EAA443100504600F0B4
:103990009DFA2F4B002B17D06B79FF2B14D0002FE3
:1039A00012D0F219914603E001364E450CD06B79E6
:1039B00032789A42F8D1504600F060F90028F3D1ED
:1039C000697900E000BFEFE7224B002B04D02248CA
:1039D00000F054F9002834D00020FFF76FFDAB78D9
:1039E000A34206D001242000E0BCBA46B146A84656
:1039F000F0BD1A4B002B02D0002000E000BF0020D9
:103A0000FFF710FE0028EDD1154D280000F020F939
:103A10000028E7D1002FE5D0BB06E3D1243D404686
:103A2000A978FFF7F1FB041EDCD0002300224046FA
:103A3000A978FFF711FCD6E7AB788B42D9D00024E8
:103A4000D1E700E000BFC7E734130020B012002028
:103A500000000000000000004413002000000000EF
:103A60005813002000B5030083B0002910D00020B7
:103A7000012B07D80A78002A04D00B48C254012031
:103A8000012A01D003B000BD1800FEF7FFFEF9E7E0
:103A9000012301A900200B80FEF7F8FE0028F1D0D9
:103AA0000122014B1A70EDE7D01B0020037870B59E
:103AB000DB0704000E00DD0F002B17D103785B0736
:103AC00001D5280070BD01213000494200F048FBBB
:103AD0002378DB07DD0F002B0AD123785B0708D49E
:103AE0000422237801251343237002E00025E8E730
:103AF0000025300000F014FBE3E7C04670B50D0070
:103B0000012104004942280000F02AFB23785B07CA
:103B1000DE0F002B04DB280000F002FB300070BD3C
:103B20002378DB0704D40422237893432370F2E73D
:103B30000026F0E710B5437904791B0223435B05A7
:103B40005A0DC3789B079B0F022B05D0032B15D072
:103B50000020012B08D010BD02291CD000204023DA
:103B600093424041C0B2F6E702394B4259410D4BF6
:103B70009C46614491424041C0B2ECE702394B425D
:103B80005941F023002049429B00194040319142A5
:103B90004041C0B2DFE7044BD3185A425341D8B278
:103BA000D9E7C046FF03000000FEFFFF8A1870B58A
:103BB000914207D27F264C78052C04D00C78091945
:103BC0008A42F8D870BD34008D782C406400041906
:103BD000ED0963550C7809198A42ECD8F2E7C04622
:103BE000F0B5C64600B5040006A8057880208846D2
:103BF00017001E000002824227D8E068002803D088
:103C00000121494200F0ACFA2069002803D00121CB
:103C1000494200F0A5FA4346236073045B0CED03B0
:103C20001D430023E0686381A780E580238100288D
:103C300001D000F075FA20690124002801D000F0BD
:103C40006FFA200080BCB846F0BD0024F9E7C046FA
:103C500010B5048941898288A3B288B28C4207D307
:103C60001B1A9BB2101C9A4200D9181C80B210BDBE
:103C70005100091A5B189BB2F4E7C04603000089A3
:103C80005B89C01A43425841C0B2704710B50489DD
:103C900041898288A3B288B28C4207D31B1A9BB297
:103CA00000209A4201D9D31A98B210BD5100091AC6
:103CB0005B189BB2F4E7C04670B5040000690E00C3
:103CC000002803D00121494200F04AFA2589608981
:103CD000A288A9B283B285422CD3CD1AADB2002DF1
:103CE0002ED0AA4208D2914231D38B1A9BB2638163
:103CF0009A4203D89B1A9BB29A42FBD9E288216868
:103D00005204520C53433000C918FEF76DF9618913
:103D100001254B1C9BB2A288994214D90023520062
:103D20009B1A9BB220696381002801D000F0F8F94A
:103D3000280070BD5500ED1A4D19ADB2002DD0D13F
:103D4000002563899BB252009342EBDBE8E78918B8
:103D50008BB26381CCE7C046F0B546464F46D646A7
:103D6000C0B50600006989469046002803D00121AD
:103D7000494200F0F5F931897289B5888BB294B265
:103D8000914257D31F1BBFB2002F4DD0BD4205D269
:103D9000AB4254D25B199CB22F0074814346B845A4
:103DA00040D89FB2A54203D8641BA4B2A542FBD958
:103DB000F288281B5204530C19009846336861435B
:103DC0009C4680B26144874226D94346584383B219
:103DD0001A0048469A46FEF707F9434648467D1BB7
:103DE00064195C4331685044A2B2FEF7FDF8718952
:103DF000B588CB199BB26A00994217D99B1A9BB21E
:103E000030697381002801D000F08AF93800E0BCE5
:103E1000BA46B146A846F0BD424648467A43FEF748
:103E2000E3F8E4E73B1CBCE773899BB26A0093426A
:103E3000E6DBE3E76F003F1BDF19BFB2A4E75B1BC4
:103E40009CB2A9E7F8B50400C0680E00002803D0B2
:103E50000121494200F084F9258920896189A288DD
:103E6000ADB283B28FB2884228D3DB1B9BB29A4299
:103E700009D8E779FF0906D1E068002801D000F0F1
:103E80004FF93800F8BD2B00954203D39B1A9BB223
:103E90009342FBD2E28821685204520C5343C81863
:103EA0003100FEF7A1F8A2886B1C9BB252009D4224
:103EB00009D99B1A9BB201272381DDE75100C91B59
:103EC0005B189BB2D3E79342F5DBF2E7F0B54E46C1
:103ED0004546DE465746E0B589460500140083B0E6
:103EE000002A6ED0C068002803D00121494200F0AA
:103EF00037F92F89EA796B89BFB29BB2D20942D1D7
:103F0000AE889F4267D27200D31AFB189BB2002280
:103F100090469E4231D9F31A1A1C9BB2A34200D993
:103F2000221C93B29846E8884346DB199BB29B4615
:103F30003C00BE4203D8A41BA4B2B442FBD240044E
:103F4000430C18009A462B6860439C46311B89B28B
:103F5000604441454ED35246434649465A43FEF7D4
:103F600043F8AB885B00BB4501D39B4503DB5A4656
:103F7000D31A9BB29B465B462B81E868002822D06F
:103F800000F0CEF81FE0AA889046944226D29F42C5
:103F900044D34146FA1A92B2490012198A4209DB07
:103FA00042469A1892B2171BBFB29346BB423AD907
:103FB0007F1ABFB2E3199BB246469B46A046E888EB
:103FC000B6E700239846404603B0F0BCBB46B24675
:103FD000A946A046F0BDFB1A9BB298E7E888A21A52
:103FE0004404640C54434246A144002AC5D04646CA
:103FF0001F0099E75346594389B20A000191494687
:10400000FDF7F2FF43469A1B5346A2185A43019903
:10401000286892B24944FDF7E7FFA2E75100CA1AA7
:10402000BA1892B2B9E7B942C2DD4646E888A0465E
:104030007EE7C04610B50400C068002803D0012107
:10404000494200F08DF82069002803D0012149423F
:1040500000F086F80023E06863812381002801D006
:1040600000F05EF82069002801D000F059F8012026
:1040700010BDC04670B50400C0680D00002803D014
:104080000121494200F06CF82069002803D0012189
:10409000494200F065F87F21E379ED011940E068BD
:1040A0002943E171002801D000F03AF82069002886
:1040B00001D000F035F8012070BDC04610B583076F
:1040C0000AD00300032102E001330B4205D01A7825
:1040D000002AF9D1181A10BD030019680C4A0D4CBA
:1040E0008A188A4322420FD15968094A04338A1830
:1040F0008A43224208D15968054A04338A188A4300
:104100002242F1D000E001331A78002AFBD1E1E726
:10411000FFFEFEFE80808080F8B5C04600000000F3
:1041200001B40248844601BC604700BFED01002095
:1041300001B40248844601BC604700BF690A002000
:1041400001B40248844601BC604700BF910A0020C8
:1041500001B40248844601BC604700BFB50D002091
:1041600001B40248844601BC604700BF5D010020E5
:1041700001B40248844601BC604700BFC100002072
:1041800001B40248844601BC604700BF210B0020F7
:1041900001B40248844601BC604700BFC50A002044
:1041A00001B40248844601BC604700BFD10A002028
:1041B00001B40248844601BC604700BF15020020DC
:1041C000B91B0010E51B0010E11D0010CD1F0010F1
:1041D0003D1E00103D1F0010091D0010011C0010A5
:1041E000211C0010351C0010310F00103D1C001068
:1041F000FD120010811B0010250A0010FD020010A6
:104200000D0A5B444941474E4F535449435D205783
:1042100061726E696E673A20506F74656E74696181
:104220006C2052582F545820737761702064657445
:1042300065637465642120416374697669747920CB
:104240006F6E2054582070696E2E0D0A0000000019
:1042500052617370626572727920506900000000CB
:104260005069636F00000000426F61726420434434
:104270004300000009024B00020100A0FA080B00F5
:1042800002020200000904000001020200040524E9
:104290000020010524010001042402060524060073
:1042A000010705810308001009040100020A00004B
:1042B00000070502024000000705830240000000DD
:1042C00012010002EF0201408A2E0A0000010102E1
:1042D0000301000000000000504200106042001086
:1042E000380E0020684200100A2A2A2A2050414E27
:1042F0004943202A2A2A0A000A0000004E6F207330
:1043000070696E6C6F636B7320617265206176619A
:10431000696C61626C650000486172647761726506
:1043200020616C61726D20256420616C726561642E
:104330007920636C61696D65640000004861726496
:10434000206173736572740052656C6561736500FA
:10435000626F6F74325F7732357130383000000031
:10436000322E322E300000007069636F00000000B2
:104370007765625F73657269616C5F6272696467B9
:10438000650000004D617920203420323032360043
:1043900005005250DE65F468CC5300100600525000
:1043A0005422A29D8443001006005250861C030232
:1043B0007043001006005250BBFF3CB6684300102B
:1043C00006005250ABB360536043001006005250D9
:1043D000E182887F5043001006005250D3F07542AE
:1043E000484300100D0A0000554152542073746474
:1043F000696E000055415254207374646F757400E7
:104400005541525420737464696E202F2073746474
:104410006F7574000600525053B4F4A100440010AC
:104420000800525012000000080052509210000084
:10443000556E68616E646C65642049525120307815
:1044400025780A0065702025303258207761732066
:10445000616C726561647920617661696C61626C1E
:104460006500000043616E277420636F6E74696E8F
:1044700075652078666572206F6E20696E61637461
:104480006976652065702025303258009C2900101F
:10449000FC2A0010422B0010D42A0010E62A00103B
:1044A000C42A00103A2A0010EA290010DE29001060
:1044B000702E00105A2E0010B22A0010922E0010FA
:1044C000B22A00103E2E00102A2E0010B22A001030
:1044D000142E00102C2D0010B22A001000310010F4
:1044E000F2300010E6300010B22A0010B22A00109C
:1044F000D0300010F2300010B22A0010B22A0010A2
:10450000B22A0010B22A0010B22A0010B22A0010FB
:10451000B22A001084300010060C0020060C002087
:10452000E80B00205C0C0020620D0020760D0020BE
:10453000500C002000000000E93600106937001020
:104540008D370010D93700108138001069390010FC
:044550000000000067
:10455400904300109C430010A8430010B443001083
:10456400C0430010CC430010D84300101444001082
:0845740020440010284400104F
:10457C00F0B5C646150000B504001E000268EFF346
:10458C00108172B61368002BFCD0BFF35F8F04232D
:10459C00E356002B2DDB2268BFF35F8F00201060E9
:1045AC0081F31088D0221206127852B290469A42A9
:1045BC0003D1002080BCB846F0BD00270BE0236877
:1045CC00BFF35F8F1F6081F310882800310000F06B
:1045DC0053FE0028EDD12268EFF3108172B61368F8
:1045EC00002BFCD0BFF35F8F23797F2BE7D9434699
:1045FC0002E0D0231B061B6823712368BFF35F8F77
:10460C0000221A6081F310880120D3E7F0B5C6466A
:10461C0000B50D00040000F04FFEFA2206000F005A
:10462C00002328000021920000F04EFE36184F4166
:10463C00002F2CDBD0231B061B68002598460BE0B3
:10464C002368BFF35F8F1D6081F310883000390041
:10465C0000F012FE002818D12268EFF3108172B618
:10466C001368002BFCD0BFF35F8F23797F2BE7D926
:10467C00434623712368BFF35F8F00221A6081F3D6
:10468C001088012080BCB846F0BD0020FAE7012656
:10469C00014F7642CEE7C046FFFFFF7F0268EFF383
:1046AC00108172B61368002BFCD0BFF35F8FFF2311
:1046BC0003710368BFF35F8F00221A6081F31088C7
:1046CC0040BF704700231C4A10B59360D3601B4A4F
:1046DC0000219360D3601A4A1A489360D3601A4A37
:1046EC009360D360194A9360D360194A9360D36086
:1046FC00184A9360D360184A9360D360174A93604A
:10470C00D360174A9360D360164A9360D360164AFD
:10471C009360D360154A9360D360154A9360D3605D
:10472C00144A9360D360F022920000F09DFD124B6E
:10473C00124A1A6010BDC0460000105008001050FC
:10474C0010001050AC1D002018001050200010500C
:10475C0028001050300010503800105040001050FD
:10476C00480010505000105058001050600010506D
:10477C006800105070001050702100208001105003
:10478C00F0B54F46D6464646C0B5204B84B09F6D1B
:10479C00002F23D01E4B00249A46012399461D4B13
:1047AC000126984604E001347600E4B2202C15D0A2
:1047BC003E42F8D053469E654B4665086D00A343B8
:1047CC00ED186D014544280000F038FC00280BD191
:1047DC000134B743E4B27600002FE7D104B0E0BC5B
:1047EC00BA46B146A846F0BDEB8AE02103930023FC
:1047FC0001A8AA78C900018001210271437100F05F
:10480C003DFC280000F0B6FBE2E7C046000011506A
:10481C00003011506C1D00209823F0B54646D6464A
:10482C004F46CD4AC0B5D55880232C009B0210268C
:10483C0084B01C401D4273D0C84BC94C9A6AC94BFA
:10484C0000261A603B23E35C022B00D1FEE07B23A5
:10485C00E35C022B00D11CE1BB23E35C022B00D1F7
:10486C0005E1FB23E35C022B00D163E13C23FF3326
:10487C00E35C022B00D148E17C23FF33E35C022B89
:10488C0000D12DE1BC23FF33E35C022B00D112E1FC
:10489C00FC23FF33E35C022B00D10DE2B24BE35C53
:1048AC00022B00D1F4E1B14BE35C022B00D1DBE134
:1048BC00AF4BE35C022B00D1C2E1AE4BE35C022BAD
:1048CC0000D1A9E1AC4BE35C022B00D190E1AB4BE6
:1048DC00E35C022B00D177E1A94BE35C022B00D106
:1048EC005CE1A84BE35C022B00D1FAE1002E08D16D
:1048FC00A54B1B78002B04D18021A44A903389024C
:10490C00D150C022944B01A89B6C92005B055B0DAF
:10491C00012180240280436000F0B0FB9C4EA40275
:10492C00EB0600D586E080235B021D4237D01C438A
:10493C000023984602339946964B894E9A46B37E8D
:10494C00002B17D04B4642469F1A00F09DFC0128C5
:10495C0000D973E0C02200213000920100F010FB5E
:10496C00300000F007FB00F08FFC012802D9874BC8
:10497C005F661F660123F37043462036012B23D15B
:10498C00C02301A8DB00844A038002AB42CA42C3A5
:10499C00012100F073FB80227C4B92021A6580236C
:1049AC005B011D4213D18023DB011D4226D18023E4
:1049BC001B021D4231D1AC4200D0ACE104B0E0BCD2
:1049CC00BA46B146A846F0BD01239846B7E7002683
:1049DC001C43614B1E60FFF775FE80236A465B002B
:1049EC0093801672012101A800F048FB8022674BCE
:1049FC0012031A658023DB011D42D8D01C4380238F
:104A0C0001A8DB000380012100F038FB10225F4B72
:104A1C001A6580231B021D42CDD01C43A02301A884
:104A2C00DB000380012100F029FB8022574B12018F
:104A3C001A65C0E7FFF7A4FE340074E75346464AF4
:104A4C001F66536E3B40BB42FBD183E73833E65CB9
:104A5C00002E00D1FBE60233E25C002A00D1F6E620
:104A6C0000222000E254203000F0B2FAEFE6B83316
:104A7C00E35C002B00D1F4E6BC22A15C1E000029F3
:104A8C0000D1EEE600232000A354A03000F0A0FAE1
:104A9C00E7E67833E35C002B00D1DDE67C22A15CF9
:104AAC001E00002900D1D7E600232000A35460305B
:104ABC0000F08EFAD0E6B933FF33E35C002B00D163
:104ACC00E6E6DE225200A15C1E00002900D1DFE6E2
:104ADC0020000023A130A354FF3000F079FAD7E670
:104AEC007933FF33E35C002B00D1CBE6BE225200BE
:104AFC00A15C1E00002900D1C4E620000023613017
:104B0C00A354FF3000F064FABCE63933FF33E35CA6
:104B1C00002B00D1B0E69E225200A15C1E000029A1
:104B2C0000D1A9E6200000232130A354FF3000F06F
:104B3C004FFAA1E6F833E35C002B00D196E6FC2299
:104B4C00A15C1E00002900D190E600232000A35494
:104B5C00E03000F03DFA89E60000115000400540BD
:104B6C006C1D0020641D00203B0200007B02000035
:104B7C00BB020000FB0200003B0300007B030000B3
:104B8C00BB030000FB0300009D22002000301150ED
:104B9C00100002000020115000001050604BE35C2C
:104BAC00002B00D19DE6EF239B00E25C002A00D095
:104BBC00A9E05C4BE35C022B00D0A2E65A4BE35C11
:104BCC00002B00D092E09CE6584BE35C002B00D10C
:104BDC0082E6DF229200A15C1E00002900D17BE658
:104BEC000023A354D8239B00E01800F0F1F973E6DE
:104BFC004F4BE35C002B00D169E6CF229200A15C05
:104C0C001E00002900D162E60023A354C8239B0098
:104C1C00E01800F0DDF95AE6464BE35C002B00D1BE
:104C2C0050E6BF229200A15C1E00002900D149E68B
:104C3C000023A354B8239B00E01800F0C9F941E607
:104C4C003D4BE35C002B00D137E6AF229200A15C18
:104C5C001E00002900D130E60023A354A8239B009A
:104C6C00E01800F0B5F928E6344BE35C002B00D1DA
:104C7C001EE69F229200A15C1E00002900D117E6BF
:104C8C000023A35498239B00E01800F0A1F90FE631
:104C9C002B4BE35C002B00D105E68F229200A15C2C
:104CAC001E00002900D1FEE50023A35488239B009D
:104CBC00E01800F08DF9F6E5F933FF33E35C002BD7
:104CCC0000D1EBE5FE225200A15C1E00002900D1B0
:104CDC00E4E520000023E130A354FF3000F078F924
:104CEC00DCE5114BE35C002B00D1FFE5FF239B00BF
:104CFC00E25C002A00D104E60022E2541C3BE018DE
:104D0C0000F066F9FDE50022E254E8239B00E01870
:104D1C0000F05EF94DE721000A48694000F0BCFA4A
:104D2C00BA030000FB030000FA0300007A03000042
:104D3C003A030000FA020000BA0200007A020000F6
:104D4C003A02000030440010F0B5D6464F464646B5
:104D5C000300C0B51C8B808A8A46221C844200D971
:104D6C00021C802692B2801ADD7884B2F6009C82F6
:104D7C001643002D02D09026B601164301277D4024
:104D8C00DD705D783000002D41D151468801D96825
:104D9C001F698C46511E88468444002A32D06146D5
:104DAC0002207C1C0C1BA042804108244445A441D9
:104DBC0040426442044238D060463843810734D1C3
:104DCC00151FAD08691C89460020002461463D581A
:104DDC0001340D500430A145F8D849468D00614688
:104DEC004C1941467F19481BAA4209D03D782570C1
:104DFC00002805D07D786570012801D0B878A070A6
:104E0C001F699C8A8020BA1800021A613043002C5A
:104E1C0002D18023DB0118435346002B00D0000441
:104E2C00E0BCBA46B146A846F0BD002061463C5CE9
:104E3C000C5401308242F9D1E2E7C046826803008B
:104E4C00F0B51068002900D0000C5A788005800D50
:104E5C00002A08D1DA8A8218DA821A8B824201D9A6
:104E6C0000229A82F0BDDA688901451EAC461C69A5
:104E7C00561800282ED00131511825000222611A33
:104E8C008A428941354301322A4055426A4149429E
:104E9C000A4225D06246082A22D900220021051F89
:104EAC00AD080135B7580131A75004328D42F9D8FD
:104EBC006246AD0076196419571BA84209D03278A6
:104ECC002270002F05D072786270012F01D0B27859
:104EDC00A2701C69DA8A24188218DA821C61BCE779
:104EEC000022B15CA15401329042FAD11C69F1E765
:104EFC0010B50400836800211B68FFF79FFF6368EF
:104F0C001B685B0002D5238B834200D010BD0121AE
:104F1C002000FFF793FFF9E7084A0300126C00200A
:104F2C00920703D49A78D209012A00D07047D87E10
:104F3C00023843425841C0B2F8E7C0460000115055
:104F4C0010B5FFF7E9FF00280CD00749074B8C463A
:104F5C00074A9B6A126863449B1A0020C6229A4235
:104F6C004041C0B210BDC046E0FCFFFF0040054010
:104F7C00641D002000238376436103617047C046A3
:104F8C0010B58368002901D01C682140002A12D07A
:104F9C008024E400114322420DD01A6822420CD125
:104FAC00084A0A401A60084A126C920703D40C2370
:104FBC00033BFDD28368196010BD8178034800F073
:104FCC006BF9C046FFFBFFFF00001150444400107A
:104FDC00436870B5002180251E680400FFF7B4FEFD
:104FEC00134B6D011B6C05439B070FD5A3785B0618
:104FFC000FD0104B1E4080239B0533436268002169
:10500C00136020002A00FFF7BBFF70BDA378DB09FB
:10501C00EFD0A38A002BECD001212000FFF794FEE7
:10502C00A023054ADB05324005431343E6E7C0469F
:10503C0000001150FFFFFFAFFFFFFFDF70B5857E53
:10504C000400002D13D0FFF753FFA38A002B01D1CE
:10505C00280070BD2000FFF773FF051E03D001234D
:10506C0000252377F4E72000FFF7B2FFF0E7817803
:10507C00014800F011F9C04664440010F0B5CE466A
:10508C00474680B5437805000E0085B0062B12D834
:10509C006D4A9B00D3589F4601216C4B1A788A436A
:1050AC001A701A7801318A431A7000225A701A78D1
:1050BC0002318A431A70664B1C686269EFF31081E7
:1050CC0072B61368002BFCD0BFF35F8FA161200078
:1050DC00290000F001F96269A369BFF35F8F002119
:1050EC00116083F31088002804D105B0C0BCB94608
:1050FC00B046F0BD32006978287800F0D5F8F4E7B6
:10510C00544A13780133DBB21370D4E7524B534F2C
:10511C009946534B002498463A780AE04146096870
:10512C0063018C466344002B08D10134E4B29442F1
:10513C000FD8A242F2D8A31A5B014B44DB69002BB7
:10514C00F3D028786968984701343A78E4B29442ED
:10515C00EFD93E4F3B785B072AD504223B7801AC54
:10516C0093430021200008323B7000F07DF82B782F
:10517C00237005236370364B1B6898465A69EFF30E
:10518C00108172B61368002BFCD0BFF35F8F4346BF
:10519C0040469961210000F09FF843465A699B698B
:1051AC00BFF35F8F0021116083F31088002844D176
:1051BC00FB78DB0700D498E701AC0C22002120001F
:1051CC0000F052F82B782370032363706B686360D4
:1051DC001F4B1D686A69EFF3108172B61368002BC0
:1051EC00FCD0BFF35F8FA9612800210000F074F898
:1051FC006A69AB69BFF35F8F0021116083F310887C
:10520C00002800D171E732006178207800F04CF86A
:10521C006BE70E4B1A78D20700D466E704211A7894
:10522C000A431A7047E7094B1A78D20700D45CE797
:10523C0004211A788A431A703DE73200617820788D
:10524C0000F032F8B4E7C04618450010DC1B002013
:10525C00341C00209E220020344500109C2200208B
:10526C00AC1200207047C04601B40248844601BC11
:10527C00604700BFDD1F001001B40248844601BC2A
:10528C00604700BF0515001001B40248844601BCFC
:10529C00604700BFB508001001B40248844601BC49
:1052AC00604700BFC108001001B40248844601BC2D
:1052BC00604700BF4928001001B40248844601BC75
:1052CC00604700BF2516001001B40248844601BC9B
:1052DC00604700BF091F001001B40248844601BC9E
:1052EC00604700BF453E0010303030303030303039
:1052FC0030303030000000000010000000000000D2
:10530C00000001000000000000000000000002008E
:10531C00000000000000000000000300000000007E
:10532C00000000000000FF000000000001B548680C
:10533C0001318E460047704609380149884701BD46
:10534C006D0E0010000000000000000000000000C6
:10535C000000000000000000100F00200000000002
:10536C00503300004C330000543300005233000023
:10537C004D5300004D4300005334000043340000F3
:10538C0041230010392400108D2300104D240010EF
:10539C000000000000010000381C002010000C0070
:1053AC0000000000000000000000000000000000F1
:1053BC0000000000FF0000000000000000000000E2
:04000005100001E9FD
:00000001FF
